{
  "contractName": "Voter",
  "abi": [
    {
      "constant": true,
      "inputs": [
        {
          "internalType": "uint256",
          "name": "",
          "type": "uint256"
        }
      ],
      "name": "options",
      "outputs": [
        {
          "internalType": "string",
          "name": "",
          "type": "string"
        }
      ],
      "payable": false,
      "stateMutability": "view",
      "type": "function"
    },
    {
      "constant": true,
      "inputs": [
        {
          "internalType": "uint256",
          "name": "",
          "type": "uint256"
        }
      ],
      "name": "votes",
      "outputs": [
        {
          "internalType": "uint256",
          "name": "",
          "type": "uint256"
        }
      ],
      "payable": false,
      "stateMutability": "view",
      "type": "function"
    },
    {
      "constant": false,
      "inputs": [
        {
          "internalType": "string",
          "name": "option",
          "type": "string"
        }
      ],
      "name": "addOption",
      "outputs": [],
      "payable": false,
      "stateMutability": "nonpayable",
      "type": "function"
    },
    {
      "constant": false,
      "inputs": [],
      "name": "startVoting",
      "outputs": [],
      "payable": false,
      "stateMutability": "nonpayable",
      "type": "function"
    },
    {
      "constant": false,
      "inputs": [
        {
          "internalType": "uint256",
          "name": "option",
          "type": "uint256"
        }
      ],
      "name": "vote",
      "outputs": [],
      "payable": false,
      "stateMutability": "nonpayable",
      "type": "function"
    },
    {
      "constant": false,
      "inputs": [
        {
          "internalType": "string",
          "name": "optionName",
          "type": "string"
        }
      ],
      "name": "vote",
      "outputs": [],
      "payable": false,
      "stateMutability": "nonpayable",
      "type": "function"
    },
    {
      "constant": true,
      "inputs": [
        {
          "internalType": "uint256",
          "name": "position",
          "type": "uint256"
        }
      ],
      "name": "getOptionsAtPos",
      "outputs": [
        {
          "internalType": "string",
          "name": "",
          "type": "string"
        }
      ],
      "payable": false,
      "stateMutability": "view",
      "type": "function"
    },
    {
      "constant": true,
      "inputs": [],
      "name": "getVotes",
      "outputs": [
        {
          "internalType": "uint256[]",
          "name": "",
          "type": "uint256[]"
        }
      ],
      "payable": false,
      "stateMutability": "view",
      "type": "function"
    }
  ],
  "bytecode": "0x608060405234801561001057600080fd5b50610e4d806100206000396000f3fe608060405234801561001057600080fd5b50600436106100885760003560e01c80635df813301161005b5780635df81330146101cb578063cda4b6781461020d578063edc550dc146102b4578063fc36e15b1461036f57610088565b80630121b93f1461008d5780630dc96015146100bb5780631ec6b60a1461011a578063409e220514610124575b600080fd5b6100b9600480360360208110156100a357600080fd5b810190808035906020019092919050505061042a565b005b6100c3610602565b6040518080602001828103825283818151815260200191508051906020019060200280838360005b838110156101065780820151818401526020810190506100eb565b505050509050019250505060405180910390f35b61012261065a565b005b6101506004803603602081101561013a57600080fd5b810190808035906020019092919050505061083e565b6040518080602001828103825283818151815260200191508051906020019080838360005b83811015610190578082015181840152602081019050610175565b50505050905090810190601f1680156101bd5780820380516001836020036101000a031916815260200191505b509250505060405180910390f35b6101f7600480360360208110156101e157600080fd5b81019080803590602001909291905050506108f7565b6040518082815260200191505060405180910390f35b6102396004803603602081101561022357600080fd5b8101908080359060200190929190505050610918565b6040518080602001828103825283818151815260200191508051906020019080838360005b8381101561027957808201518184015260208101905061025e565b50505050905090810190601f1680156102a65780820380516001836020036101000a031916815260200191505b509250505060405180910390f35b61036d600480360360208110156102ca57600080fd5b81019080803590602001906401000000008111156102e757600080fd5b8201836020820111156102f957600080fd5b8035906020019184600183028401116401000000008311171561031b57600080fd5b91908080601f016020809104026020016040519081016040528093929190818152602001838380828437600081840152601f19601f8201169050808301925050505050505091929192905050506109d1565b005b6104286004803603602081101561038557600080fd5b81019080803590602001906401000000008111156103a257600080fd5b8201836020820111156103b457600080fd5b803590602001918460018302840111640100000000831117156103d657600080fd5b91908080601f016020809104026020016040519081016040528093929190818152602001838380828437600081840152601f19601f820116905080830192505050505050509192919290505050610a96565b005b8060001115801561043f575060028054905081105b6104b1576040517f08c379a000000000000000000000000000000000000000000000000000000000815260040180806020018281038252600f8152602001807f496e76616c6964206f7074696f6e73000000000000000000000000000000000081525060200191505060405180910390fd5b600360003373ffffffffffffffffffffffffffffffffffffffff1673ffffffffffffffffffffffffffffffffffffffff16815260200190815260200160002060009054906101000a900460ff1615610571576040517f08c379a00000000000000000000000000000000000000000000000000000000081526004018080602001828103825260198152602001807f4163636f756e742068617320616c726561647920766f7465640000000000000081525060200191505060405180910390fd5b60016000828154811061058057fe5b9060005260206000200154016000828154811061059957fe5b90600052602060002001819055506001600360003373ffffffffffffffffffffffffffffffffffffffff1673ffffffffffffffffffffffffffffffffffffffff16815260200190815260200160002060006101000a81548160ff02191690831515021790555050565b6060600080548060200260200160405190810160405280929190818152602001828054801561065057602002820191906000526020600020905b81548152602001906001019080831161063c575b5050505050905090565b600560009054906101000a900460ff16156106dd576040517f08c379a00000000000000000000000000000000000000000000000000000000081526004018080602001828103825260168152602001807f766f74696e6720616c726561647920737461727465640000000000000000000081525060200191505060405180910390fd5b6002805490506040519080825280602002602001820160405280156107115781602001602082028038833980820191505090505b5060009080519060200190610727929190610d0a565b5060008090505b60028054905081101561082057610743610d57565b60405180604001604052808381526020016001151581525090508060046002848154811061076d57fe5b9060005260206000200160405180828054600181600116156101000203166002900480156107d25780601f106107b05761010080835404028352918201916107d2565b820191906000526020600020905b8154815290600101906020018083116107be575b505091505090815260200160405180910390206000820151816000015560208201518160010160006101000a81548160ff02191690831515021790555090505050808060010191505061072e565b506001600560006101000a81548160ff021916908315150217905550565b6002818154811061084b57fe5b906000526020600020016000915090508054600181600116156101000203166002900480601f0160208091040260200160405190810160405280929190818152602001828054600181600116156101000203166002900480156108ef5780601f106108c4576101008083540402835291602001916108ef565b820191906000526020600020905b8154815290600101906020018083116108d257829003601f168201915b505050505081565b6000818154811061090457fe5b906000526020600020016000915090505481565b60606002828154811061092757fe5b906000526020600020018054600181600116156101000203166002900480601f0160208091040260200160405190810160405280929190818152602001828054600181600116156101000203166002900480156109c55780601f1061099a576101008083540402835291602001916109c5565b820191906000526020600020905b8154815290600101906020018083116109a857829003601f168201915b50505050509050919050565b600560009054906101000a900460ff1615610a54576040517f08c379a00000000000000000000000000000000000000000000000000000000081526004018080602001828103825260168152602001807f766f74696e6720616c726561647920737461727465640000000000000000000081525060200191505060405180910390fd5b6002819080600181540180825580915050906001820390600052602060002001600090919290919091509080519060200190610a91929190610d73565b505050565b600360003373ffffffffffffffffffffffffffffffffffffffff1673ffffffffffffffffffffffffffffffffffffffff16815260200190815260200160002060009054906101000a900460ff1615610b56576040517f08c379a00000000000000000000000000000000000000000000000000000000081526004018080602001828103825260198152602001807f4163636f756e742068617320616c726561647920766f7465640000000000000081525060200191505060405180910390fd5b610b5e610d57565b6004826040518082805190602001908083835b60208310610b945780518252602082019150602081019050602083039250610b71565b6001836020036101000a0380198251168184511680821785525050505050509050019150509081526020016040518091039020604051806040016040529081600082015481526020016001820160009054906101000a900460ff16151515158152505090508060200151610c70576040517f08c379a00000000000000000000000000000000000000000000000000000000081526004018080602001828103825260168152602001807f4f7074696f6e20646f6573206e6f74206578697374730000000000000000000081525060200191505060405180910390fd5b60016000826000015181548110610c8357fe5b9060005260206000200154016000826000015181548110610ca057fe5b90600052602060002001819055506001600360003373ffffffffffffffffffffffffffffffffffffffff1673ffffffffffffffffffffffffffffffffffffffff16815260200190815260200160002060006101000a81548160ff0219169083151502179055505050565b828054828255906000526020600020908101928215610d46579160200282015b82811115610d45578251825591602001919060010190610d2a565b5b509050610d539190610df3565b5090565b6040518060400160405280600081526020016000151581525090565b828054600181600116156101000203166002900490600052602060002090601f016020900481019282601f10610db457805160ff1916838001178555610de2565b82800160010185558215610de2579182015b82811115610de1578251825591602001919060010190610dc6565b5b509050610def9190610df3565b5090565b610e1591905b80821115610e11576000816000905550600101610df9565b5090565b9056fea265627a7a723158207e75ba3d9cdb12df23392ae3f464f06ac51ebcd04b1ad8c6feeb149f420d610564736f6c63430005100032",
  "source": "pragma solidity ^0.5.16;\n\ncontract Voter {\n    struct OptionPos {\n        uint pos;\n        bool exists;\n    }\n    uint[] public votes;\n    uint totalVotes;\n    string[] public options;\n    mapping (address => bool) hasVoted;\n    mapping (string => OptionPos) posOfOption;\n    bool votingStarted;\n    function addOption(string memory option) public {\n        require(!votingStarted, \"voting already started\");\n        options.push(option);\n    }\n    function startVoting() public {\n        require(!votingStarted,\"voting already started\");\n        votes = new uint[](options.length);\n        for (uint i = 0; i < options.length; i++) {\n            OptionPos memory option = OptionPos(i,true);\n            posOfOption[options[i]] = option;\n        }\n        votingStarted = true;\n    }\n    function vote(uint option) public {\n        require(0 <= option && option < options.length, \"Invalid options\");\n        require(!hasVoted[msg.sender],\"Account has already voted\");\n        votes[option] = votes[option] + 1;\n        hasVoted[msg.sender] = true;\n    }\n\n    function vote (string memory optionName) public {\n        require(!hasVoted[msg.sender],\"Account has already voted\");\n        OptionPos memory optionPos = posOfOption[optionName];\n        require(optionPos.exists, \"Option does not exists\");\n        votes[optionPos.pos] = votes[optionPos.pos] + 1;\n        hasVoted[msg.sender] = true;\n    }\n    function getOptionsAtPos(uint position) public view returns(string memory) {\n        return options[position];\n    }\n    function getVotes() public view returns (uint[] memory) {\n        return votes;\n    }\n}",
  "sourcePath": "/home/quark/workplace/projects/etherium/truffle/contracts/Voter.sol",
  "compiler": {
    "name": "solc",
    "version": "0.5.16+commit.9c3226ce.Emscripten.clang"
  },
  "schemaVersion": "3.1.0",
  "updatedAt": "2020-04-28T07:12:39.142Z",
  "networkType": "ethereum",
  "devdoc": {
    "methods": {}
  },
  "userdoc": {
    "methods": {}
  }
}